{
  "_format": "hh-sol-artifact-1",
  "contractName": "NFTPlatform",
  "sourceName": "contracts/NFTPlatform.sol",
  "abi": [
    {
      "inputs": [],
      "stateMutability": "nonpayable",
      "type": "constructor"
    },
    {
      "anonymous": false,
      "inputs": [
        {
          "indexed": true,
          "internalType": "address",
          "name": "owner",
          "type": "address"
        },
        {
          "indexed": true,
          "internalType": "address",
          "name": "approved",
          "type": "address"
        },
        {
          "indexed": true,
          "internalType": "uint256",
          "name": "tokenId",
          "type": "uint256"
        }
      ],
      "name": "Approval",
      "type": "event"
    },
    {
      "anonymous": false,
      "inputs": [
        {
          "indexed": true,
          "internalType": "address",
          "name": "owner",
          "type": "address"
        },
        {
          "indexed": true,
          "internalType": "address",
          "name": "operator",
          "type": "address"
        },
        {
          "indexed": false,
          "internalType": "bool",
          "name": "approved",
          "type": "bool"
        }
      ],
      "name": "ApprovalForAll",
      "type": "event"
    },
    {
      "anonymous": false,
      "inputs": [
        {
          "indexed": false,
          "internalType": "uint256",
          "name": "_fromTokenId",
          "type": "uint256"
        },
        {
          "indexed": false,
          "internalType": "uint256",
          "name": "_toTokenId",
          "type": "uint256"
        }
      ],
      "name": "BatchMetadataUpdate",
      "type": "event"
    },
    {
      "anonymous": false,
      "inputs": [
        {
          "indexed": true,
          "internalType": "uint256",
          "name": "tokenId",
          "type": "uint256"
        },
        {
          "indexed": false,
          "internalType": "address",
          "name": "seller",
          "type": "address"
        },
        {
          "indexed": false,
          "internalType": "address",
          "name": "owner",
          "type": "address"
        },
        {
          "indexed": false,
          "internalType": "uint256",
          "name": "price",
          "type": "uint256"
        },
        {
          "indexed": false,
          "internalType": "bool",
          "name": "sold",
          "type": "bool"
        }
      ],
      "name": "MarketItemCreated",
      "type": "event"
    },
    {
      "anonymous": false,
      "inputs": [
        {
          "indexed": false,
          "internalType": "uint256",
          "name": "_tokenId",
          "type": "uint256"
        }
      ],
      "name": "MetadataUpdate",
      "type": "event"
    },
    {
      "anonymous": false,
      "inputs": [
        {
          "indexed": true,
          "internalType": "address",
          "name": "from",
          "type": "address"
        },
        {
          "indexed": true,
          "internalType": "address",
          "name": "to",
          "type": "address"
        },
        {
          "indexed": true,
          "internalType": "uint256",
          "name": "tokenId",
          "type": "uint256"
        }
      ],
      "name": "Transfer",
      "type": "event"
    },
    {
      "inputs": [
        {
          "internalType": "address",
          "name": "to",
          "type": "address"
        },
        {
          "internalType": "uint256",
          "name": "tokenId",
          "type": "uint256"
        }
      ],
      "name": "approve",
      "outputs": [],
      "stateMutability": "nonpayable",
      "type": "function"
    },
    {
      "inputs": [
        {
          "internalType": "address",
          "name": "owner",
          "type": "address"
        }
      ],
      "name": "balanceOf",
      "outputs": [
        {
          "internalType": "uint256",
          "name": "",
          "type": "uint256"
        }
      ],
      "stateMutability": "view",
      "type": "function"
    },
    {
      "inputs": [
        {
          "internalType": "uint256",
          "name": "tokenId",
          "type": "uint256"
        }
      ],
      "name": "createMarketSale",
      "outputs": [],
      "stateMutability": "payable",
      "type": "function"
    },
    {
      "inputs": [
        {
          "internalType": "string",
          "name": "tokenURI",
          "type": "string"
        },
        {
          "internalType": "uint256",
          "name": "price",
          "type": "uint256"
        }
      ],
      "name": "createToken",
      "outputs": [
        {
          "internalType": "uint256",
          "name": "",
          "type": "uint256"
        }
      ],
      "stateMutability": "payable",
      "type": "function"
    },
    {
      "inputs": [],
      "name": "fetchItemsListed",
      "outputs": [
        {
          "components": [
            {
              "internalType": "uint256",
              "name": "tokenId",
              "type": "uint256"
            },
            {
              "internalType": "address payable",
              "name": "seller",
              "type": "address"
            },
            {
              "internalType": "address payable",
              "name": "owner",
              "type": "address"
            },
            {
              "internalType": "uint256",
              "name": "price",
              "type": "uint256"
            },
            {
              "internalType": "bool",
              "name": "sold",
              "type": "bool"
            }
          ],
          "internalType": "struct NFTPlatform.MarketItem[]",
          "name": "",
          "type": "tuple[]"
        }
      ],
      "stateMutability": "view",
      "type": "function"
    },
    {
      "inputs": [],
      "name": "fetchMarketItems",
      "outputs": [
        {
          "components": [
            {
              "internalType": "uint256",
              "name": "tokenId",
              "type": "uint256"
            },
            {
              "internalType": "address payable",
              "name": "seller",
              "type": "address"
            },
            {
              "internalType": "address payable",
              "name": "owner",
              "type": "address"
            },
            {
              "internalType": "uint256",
              "name": "price",
              "type": "uint256"
            },
            {
              "internalType": "bool",
              "name": "sold",
              "type": "bool"
            }
          ],
          "internalType": "struct NFTPlatform.MarketItem[]",
          "name": "",
          "type": "tuple[]"
        }
      ],
      "stateMutability": "view",
      "type": "function"
    },
    {
      "inputs": [],
      "name": "fetchMyNFTs",
      "outputs": [
        {
          "components": [
            {
              "internalType": "uint256",
              "name": "tokenId",
              "type": "uint256"
            },
            {
              "internalType": "address payable",
              "name": "seller",
              "type": "address"
            },
            {
              "internalType": "address payable",
              "name": "owner",
              "type": "address"
            },
            {
              "internalType": "uint256",
              "name": "price",
              "type": "uint256"
            },
            {
              "internalType": "bool",
              "name": "sold",
              "type": "bool"
            }
          ],
          "internalType": "struct NFTPlatform.MarketItem[]",
          "name": "",
          "type": "tuple[]"
        }
      ],
      "stateMutability": "view",
      "type": "function"
    },
    {
      "inputs": [
        {
          "internalType": "uint256",
          "name": "tokenId",
          "type": "uint256"
        }
      ],
      "name": "getApproved",
      "outputs": [
        {
          "internalType": "address",
          "name": "",
          "type": "address"
        }
      ],
      "stateMutability": "view",
      "type": "function"
    },
    {
      "inputs": [],
      "name": "getListingPrice",
      "outputs": [
        {
          "internalType": "uint256",
          "name": "",
          "type": "uint256"
        }
      ],
      "stateMutability": "view",
      "type": "function"
    },
    {
      "inputs": [
        {
          "internalType": "address",
          "name": "owner",
          "type": "address"
        },
        {
          "internalType": "address",
          "name": "operator",
          "type": "address"
        }
      ],
      "name": "isApprovedForAll",
      "outputs": [
        {
          "internalType": "bool",
          "name": "",
          "type": "bool"
        }
      ],
      "stateMutability": "view",
      "type": "function"
    },
    {
      "inputs": [],
      "name": "listingPrice",
      "outputs": [
        {
          "internalType": "uint256",
          "name": "",
          "type": "uint256"
        }
      ],
      "stateMutability": "view",
      "type": "function"
    },
    {
      "inputs": [],
      "name": "name",
      "outputs": [
        {
          "internalType": "string",
          "name": "",
          "type": "string"
        }
      ],
      "stateMutability": "view",
      "type": "function"
    },
    {
      "inputs": [
        {
          "internalType": "uint256",
          "name": "tokenId",
          "type": "uint256"
        }
      ],
      "name": "ownerOf",
      "outputs": [
        {
          "internalType": "address",
          "name": "",
          "type": "address"
        }
      ],
      "stateMutability": "view",
      "type": "function"
    },
    {
      "inputs": [
        {
          "internalType": "uint256",
          "name": "tokenId",
          "type": "uint256"
        },
        {
          "internalType": "uint256",
          "name": "price",
          "type": "uint256"
        }
      ],
      "name": "reSellToken",
      "outputs": [],
      "stateMutability": "payable",
      "type": "function"
    },
    {
      "inputs": [
        {
          "internalType": "address",
          "name": "from",
          "type": "address"
        },
        {
          "internalType": "address",
          "name": "to",
          "type": "address"
        },
        {
          "internalType": "uint256",
          "name": "tokenId",
          "type": "uint256"
        }
      ],
      "name": "safeTransferFrom",
      "outputs": [],
      "stateMutability": "nonpayable",
      "type": "function"
    },
    {
      "inputs": [
        {
          "internalType": "address",
          "name": "from",
          "type": "address"
        },
        {
          "internalType": "address",
          "name": "to",
          "type": "address"
        },
        {
          "internalType": "uint256",
          "name": "tokenId",
          "type": "uint256"
        },
        {
          "internalType": "bytes",
          "name": "data",
          "type": "bytes"
        }
      ],
      "name": "safeTransferFrom",
      "outputs": [],
      "stateMutability": "nonpayable",
      "type": "function"
    },
    {
      "inputs": [
        {
          "internalType": "address",
          "name": "operator",
          "type": "address"
        },
        {
          "internalType": "bool",
          "name": "approved",
          "type": "bool"
        }
      ],
      "name": "setApprovalForAll",
      "outputs": [],
      "stateMutability": "nonpayable",
      "type": "function"
    },
    {
      "inputs": [
        {
          "internalType": "bytes4",
          "name": "interfaceId",
          "type": "bytes4"
        }
      ],
      "name": "supportsInterface",
      "outputs": [
        {
          "internalType": "bool",
          "name": "",
          "type": "bool"
        }
      ],
      "stateMutability": "view",
      "type": "function"
    },
    {
      "inputs": [],
      "name": "symbol",
      "outputs": [
        {
          "internalType": "string",
          "name": "",
          "type": "string"
        }
      ],
      "stateMutability": "view",
      "type": "function"
    },
    {
      "inputs": [
        {
          "internalType": "uint256",
          "name": "tokenId",
          "type": "uint256"
        }
      ],
      "name": "tokenURI",
      "outputs": [
        {
          "internalType": "string",
          "name": "",
          "type": "string"
        }
      ],
      "stateMutability": "view",
      "type": "function"
    },
    {
      "inputs": [
        {
          "internalType": "address",
          "name": "from",
          "type": "address"
        },
        {
          "internalType": "address",
          "name": "to",
          "type": "address"
        },
        {
          "internalType": "uint256",
          "name": "tokenId",
          "type": "uint256"
        }
      ],
      "name": "transferFrom",
      "outputs": [],
      "stateMutability": "nonpayable",
      "type": "function"
    },
    {
      "inputs": [
        {
          "internalType": "uint256",
          "name": "_listingPrice",
          "type": "uint256"
        }
      ],
      "name": "updateListingPrice",
      "outputs": [],
      "stateMutability": "payable",
      "type": "function"
    }
  ],
  "bytecode": "0x60806040526658d15e176280006009553480156200001c57600080fd5b506040518060400160405280601381526020017f4e4654204d657461766172736520546f6b656e000000000000000000000000008152506040518060400160405280600581526020017f4d594e46540000000000000000000000000000000000000000000000000000008152508160009080519060200190620000a1929190620000e9565b508060019080519060200190620000ba929190620000e9565b5050503373ffffffffffffffffffffffffffffffffffffffff16600a60009054906101000a90505050620001fe565b828054620000f790620001c8565b90600052602060002090601f0160209004810192826200011b576000855562000167565b82601f106200013657805160ff191683800117855562000167565b8280016001018555821562000167579182015b828111156200016657825182559160200191906001019062000149565b5b5090506200017691906200017a565b5090565b5b80821115620001955760008160009055506001016200017b565b5090565b7f4e487b7100000000000000000000000000000000000000000000000000000000600052602260045260246000fd5b60006002820490506001821680620001e157607f821691505b60208210811415620001f857620001f762000199565b5b50919050565b614186806200020e6000396000f3fe6080604052600436106101355760003560e01c806370a08231116100ab578063ae677aa31161006f578063ae677aa314610420578063b88d4fde1461043c578063be9af53614610465578063c78f19f914610481578063c87b56dd146104ac578063e985e9c5146104e957610135565b806370a082311461034357806372b3b6201461038057806385535b25146103b057806395d89b41146103cc578063a22cb465146103f757610135565b806312e85585116100fd57806312e8558514610233578063202e37401461025e57806323b872dd1461028957806342842e0e146102b257806345f8fa80146102db5780636352211e1461030657610135565b806301ffc9a71461013a57806306fdde0314610177578063081812fc146101a2578063095ea7b3146101df5780630f08efe014610208575b600080fd5b34801561014657600080fd5b50610161600480360381019061015c9190612c9b565b610526565b60405161016e9190612ce3565b60405180910390f35b34801561018357600080fd5b5061018c610587565b6040516101999190612d97565b60405180910390f35b3480156101ae57600080fd5b506101c960048036038101906101c49190612def565b610619565b6040516101d69190612e5d565b60405180910390f35b3480156101eb57600080fd5b5061020660048036038101906102019190612ea4565b61065f565b005b34801561021457600080fd5b5061021d610777565b60405161022a919061303a565b60405180910390f35b34801561023f57600080fd5b506102486109e0565b604051610255919061306b565b60405180910390f35b34801561026a57600080fd5b506102736109ea565b604051610280919061303a565b60405180910390f35b34801561029557600080fd5b506102b060048036038101906102ab9190613086565b610cd8565b005b3480156102be57600080fd5b506102d960048036038101906102d49190613086565b610d38565b005b3480156102e757600080fd5b506102f0610d58565b6040516102fd919061303a565b60405180910390f35b34801561031257600080fd5b5061032d60048036038101906103289190612def565b611046565b60405161033a9190612e5d565b60405180910390f35b34801561034f57600080fd5b5061036a600480360381019061036591906130d9565b6110cd565b604051610377919061306b565b60405180910390f35b61039a6004803603810190610395919061323b565b611185565b6040516103a7919061306b565b60405180910390f35b6103ca60048036038101906103c59190613297565b6111c7565b005b3480156103d857600080fd5b506103e16113bc565b6040516103ee9190612d97565b60405180910390f35b34801561040357600080fd5b5061041e60048036038101906104199190613303565b61144e565b005b61043a60048036038101906104359190612def565b611464565b005b34801561044857600080fd5b50610463600480360381019061045e91906133e4565b6114fe565b005b61047f600480360381019061047a9190612def565b611560565b005b34801561048d57600080fd5b50610496611798565b6040516104a3919061306b565b60405180910390f35b3480156104b857600080fd5b506104d360048036038101906104ce9190612def565b61179e565b6040516104e09190612d97565b60405180910390f35b3480156104f557600080fd5b50610510600480360381019061050b9190613467565b6118b1565b60405161051d9190612ce3565b60405180910390f35b6000634906490660e01b7bffffffffffffffffffffffffffffffffffffffffffffffffffffffff1916827bffffffffffffffffffffffffffffffffffffffffffffffffffffffff19161480610580575061057f82611945565b5b9050919050565b606060008054610596906134d6565b80601f01602080910402602001604051908101604052809291908181526020018280546105c2906134d6565b801561060f5780601f106105e45761010080835404028352916020019161060f565b820191906000526020600020905b8154815290600101906020018083116105f257829003601f168201915b5050505050905090565b600061062482611a27565b6004600083815260200190815260200160002060009054906101000a900473ffffffffffffffffffffffffffffffffffffffff169050919050565b600061066a82611046565b90508073ffffffffffffffffffffffffffffffffffffffff168373ffffffffffffffffffffffffffffffffffffffff1614156106db576040517f08c379a00000000000000000000000000000000000000000000000000000000081526004016106d29061357a565b60405180910390fd5b8073ffffffffffffffffffffffffffffffffffffffff166106fa611a72565b73ffffffffffffffffffffffffffffffffffffffff161480610729575061072881610723611a72565b6118b1565b5b610768576040517f08c379a000000000000000000000000000000000000000000000000000000000815260040161075f9061360c565b60405180910390fd5b6107728383611a7a565b505050565b606060006107856007611b33565b905060006107936008611b33565b61079d6007611b33565b6107a7919061365b565b90506000808267ffffffffffffffff8111156107c6576107c5613110565b5b6040519080825280602002602001820160405280156107ff57816020015b6107ec612b2f565b8152602001906001900390816107e45790505b50905060005b848110156109d5573073ffffffffffffffffffffffffffffffffffffffff16600b6000600184610835919061368f565b815260200190815260200160002060020160009054906101000a900473ffffffffffffffffffffffffffffffffffffffff1673ffffffffffffffffffffffffffffffffffffffff1614156109c2576000600182610892919061368f565b90506000600b60008381526020019081526020016000209050806040518060a0016040529081600082015481526020016001820160009054906101000a900473ffffffffffffffffffffffffffffffffffffffff1673ffffffffffffffffffffffffffffffffffffffff1673ffffffffffffffffffffffffffffffffffffffff1681526020016002820160009054906101000a900473ffffffffffffffffffffffffffffffffffffffff1673ffffffffffffffffffffffffffffffffffffffff1673ffffffffffffffffffffffffffffffffffffffff168152602001600382015481526020016004820160009054906101000a900460ff1615151515815250508486815181106109a5576109a46136e5565b5b60200260200101819052506001856109bd919061368f565b945050505b80806109cd90613714565b915050610805565b508094505050505090565b6000600954905090565b606060006109f86007611b33565b905060008060005b83811015610aa1573373ffffffffffffffffffffffffffffffffffffffff16600b6000600184610a30919061368f565b815260200190815260200160002060020160009054906101000a900473ffffffffffffffffffffffffffffffffffffffff1673ffffffffffffffffffffffffffffffffffffffff161415610a8e57600183610a8b919061368f565b92505b8080610a9990613714565b915050610a00565b5060008267ffffffffffffffff811115610abe57610abd613110565b5b604051908082528060200260200182016040528015610af757816020015b610ae4612b2f565b815260200190600190039081610adc5790505b50905060005b84811015610ccd573373ffffffffffffffffffffffffffffffffffffffff16600b6000600184610b2d919061368f565b815260200190815260200160002060020160009054906101000a900473ffffffffffffffffffffffffffffffffffffffff1673ffffffffffffffffffffffffffffffffffffffff161415610cba576000600182610b8a919061368f565b90506000600b60008381526020019081526020016000209050806040518060a0016040529081600082015481526020016001820160009054906101000a900473ffffffffffffffffffffffffffffffffffffffff1673ffffffffffffffffffffffffffffffffffffffff1673ffffffffffffffffffffffffffffffffffffffff1681526020016002820160009054906101000a900473ffffffffffffffffffffffffffffffffffffffff1673ffffffffffffffffffffffffffffffffffffffff1673ffffffffffffffffffffffffffffffffffffffff168152602001600382015481526020016004820160009054906101000a900460ff161515151581525050848681518110610c9d57610c9c6136e5565b5b6020026020010181905250600185610cb5919061368f565b945050505b8080610cc590613714565b915050610afd565b508094505050505090565b610ce9610ce3611a72565b82611b41565b610d28576040517f08c379a0000000000000000000000000000000000000000000000000000000008152600401610d1f906137cf565b60405180910390fd5b610d33838383611bd6565b505050565b610d53838383604051806020016040528060008152506114fe565b505050565b60606000610d666007611b33565b905060008060005b83811015610e0f573373ffffffffffffffffffffffffffffffffffffffff16600b6000600184610d9e919061368f565b815260200190815260200160002060010160009054906101000a900473ffffffffffffffffffffffffffffffffffffffff1673ffffffffffffffffffffffffffffffffffffffff161415610dfc57600183610df9919061368f565b92505b8080610e0790613714565b915050610d6e565b5060008267ffffffffffffffff811115610e2c57610e2b613110565b5b604051908082528060200260200182016040528015610e6557816020015b610e52612b2f565b815260200190600190039081610e4a5790505b50905060005b8481101561103b573373ffffffffffffffffffffffffffffffffffffffff16600b6000600184610e9b919061368f565b815260200190815260200160002060010160009054906101000a900473ffffffffffffffffffffffffffffffffffffffff1673ffffffffffffffffffffffffffffffffffffffff161415611028576000600182610ef8919061368f565b90506000600b60008381526020019081526020016000209050806040518060a0016040529081600082015481526020016001820160009054906101000a900473ffffffffffffffffffffffffffffffffffffffff1673ffffffffffffffffffffffffffffffffffffffff1673ffffffffffffffffffffffffffffffffffffffff1681526020016002820160009054906101000a900473ffffffffffffffffffffffffffffffffffffffff1673ffffffffffffffffffffffffffffffffffffffff1673ffffffffffffffffffffffffffffffffffffffff168152602001600382015481526020016004820160009054906101000a900460ff16151515158152505084868151811061100b5761100a6136e5565b5b6020026020010181905250600185611023919061368f565b945050505b808061103390613714565b915050610e6b565b508094505050505090565b60008061105283611ed0565b9050600073ffffffffffffffffffffffffffffffffffffffff168173ffffffffffffffffffffffffffffffffffffffff1614156110c4576040517f08c379a00000000000000000000000000000000000000000000000000000000081526004016110bb9061383b565b60405180910390fd5b80915050919050565b60008073ffffffffffffffffffffffffffffffffffffffff168273ffffffffffffffffffffffffffffffffffffffff16141561113e576040517f08c379a0000000000000000000000000000000000000000000000000000000008152600401611135906138cd565b60405180910390fd5b600360008373ffffffffffffffffffffffffffffffffffffffff1673ffffffffffffffffffffffffffffffffffffffff168152602001908152602001600020549050919050565b60006111916007611f0d565b600061119d6007611b33565b90506111a93382611f23565b6111b38185612141565b6111bd81846121ec565b8091505092915050565b3373ffffffffffffffffffffffffffffffffffffffff16600b600084815260200190815260200160002060020160009054906101000a900473ffffffffffffffffffffffffffffffffffffffff1673ffffffffffffffffffffffffffffffffffffffff161461126b576040517f08c379a00000000000000000000000000000000000000000000000000000000081526004016112629061395f565b60405180910390fd5b60095434146112af576040517f08c379a00000000000000000000000000000000000000000000000000000000081526004016112a6906139f1565b60405180910390fd5b6000600b600084815260200190815260200160002060040160006101000a81548160ff02191690831515021790555080600b60008481526020019081526020016000206003018190555033600b600084815260200190815260200160002060010160006101000a81548173ffffffffffffffffffffffffffffffffffffffff021916908373ffffffffffffffffffffffffffffffffffffffff16021790555030600b600084815260200190815260200160002060020160006101000a81548173ffffffffffffffffffffffffffffffffffffffff021916908373ffffffffffffffffffffffffffffffffffffffff1602179055506113ad60086123ef565b6113b8333084611bd6565b5050565b6060600180546113cb906134d6565b80601f01602080910402602001604051908101604052809291908181526020018280546113f7906134d6565b80156114445780601f1061141957610100808354040283529160200191611444565b820191906000526020600020905b81548152906001019060200180831161142757829003601f168201915b5050505050905090565b611460611459611a72565b838361244b565b5050565b600a60009054906101000a900473ffffffffffffffffffffffffffffffffffffffff1673ffffffffffffffffffffffffffffffffffffffff163373ffffffffffffffffffffffffffffffffffffffff16146114f4576040517f08c379a00000000000000000000000000000000000000000000000000000000081526004016114eb90613a83565b60405180910390fd5b8060098190555050565b61150f611509611a72565b83611b41565b61154e576040517f08c379a0000000000000000000000000000000000000000000000000000000008152600401611545906137cf565b60405180910390fd5b61155a848484846125b8565b50505050565b6000600b60008381526020019081526020016000206003015490508034146115bd576040517f08c379a00000000000000000000000000000000000000000000000000000000081526004016115b490613b15565b60405180910390fd5b33600b600084815260200190815260200160002060020160006101000a81548173ffffffffffffffffffffffffffffffffffffffff021916908373ffffffffffffffffffffffffffffffffffffffff1602179055506001600b600084815260200190815260200160002060040160006101000a81548160ff0219169083151502179055506000600b600084815260200190815260200160002060020160006101000a81548173ffffffffffffffffffffffffffffffffffffffff021916908373ffffffffffffffffffffffffffffffffffffffff1602179055506116a16008611f0d565b6116ac303384611bd6565b600a60009054906101000a900473ffffffffffffffffffffffffffffffffffffffff1673ffffffffffffffffffffffffffffffffffffffff166108fc6009549081150290604051600060405180830381858888f19350505050158015611716573d6000803e3d6000fd5b50600b600083815260200190815260200160002060010160009054906101000a900473ffffffffffffffffffffffffffffffffffffffff1673ffffffffffffffffffffffffffffffffffffffff166108fc349081150290604051600060405180830381858888f19350505050158015611793573d6000803e3d6000fd5b505050565b60095481565b60606117a982611a27565b60006006600084815260200190815260200160002080546117c9906134d6565b80601f01602080910402602001604051908101604052809291908181526020018280546117f5906134d6565b80156118425780601f1061181757610100808354040283529160200191611842565b820191906000526020600020905b81548152906001019060200180831161182557829003601f168201915b505050505090506000611853612614565b90506000815114156118695781925050506118ac565b60008251111561189e578082604051602001611886929190613b71565b604051602081830303815290604052925050506118ac565b6118a78461262b565b925050505b919050565b6000600560008473ffffffffffffffffffffffffffffffffffffffff1673ffffffffffffffffffffffffffffffffffffffff16815260200190815260200160002060008373ffffffffffffffffffffffffffffffffffffffff1673ffffffffffffffffffffffffffffffffffffffff16815260200190815260200160002060009054906101000a900460ff16905092915050565b60007f80ac58cd000000000000000000000000000000000000000000000000000000007bffffffffffffffffffffffffffffffffffffffffffffffffffffffff1916827bffffffffffffffffffffffffffffffffffffffffffffffffffffffff19161480611a1057507f5b5e139f000000000000000000000000000000000000000000000000000000007bffffffffffffffffffffffffffffffffffffffffffffffffffffffff1916827bffffffffffffffffffffffffffffffffffffffffffffffffffffffff1916145b80611a205750611a1f82612693565b5b9050919050565b611a30816126fd565b611a6f576040517f08c379a0000000000000000000000000000000000000000000000000000000008152600401611a669061383b565b60405180910390fd5b50565b600033905090565b816004600083815260200190815260200160002060006101000a81548173ffffffffffffffffffffffffffffffffffffffff021916908373ffffffffffffffffffffffffffffffffffffffff160217905550808273ffffffffffffffffffffffffffffffffffffffff16611aed83611046565b73ffffffffffffffffffffffffffffffffffffffff167f8c5be1e5ebec7d5bd14f71427d1e84f3dd0314c0f7b2291e5b200ac8c7c3b92560405160405180910390a45050565b600081600001549050919050565b600080611b4d83611046565b90508073ffffffffffffffffffffffffffffffffffffffff168473ffffffffffffffffffffffffffffffffffffffff161480611b8f5750611b8e81856118b1565b5b80611bcd57508373ffffffffffffffffffffffffffffffffffffffff16611bb584610619565b73ffffffffffffffffffffffffffffffffffffffff16145b91505092915050565b8273ffffffffffffffffffffffffffffffffffffffff16611bf682611046565b73ffffffffffffffffffffffffffffffffffffffff1614611c4c576040517f08c379a0000000000000000000000000000000000000000000000000000000008152600401611c4390613c07565b60405180910390fd5b600073ffffffffffffffffffffffffffffffffffffffff168273ffffffffffffffffffffffffffffffffffffffff161415611cbc576040517f08c379a0000000000000000000000000000000000000000000000000000000008152600401611cb390613c99565b60405180910390fd5b611cc9838383600161273e565b8273ffffffffffffffffffffffffffffffffffffffff16611ce982611046565b73ffffffffffffffffffffffffffffffffffffffff1614611d3f576040517f08c379a0000000000000000000000000000000000000000000000000000000008152600401611d3690613c07565b60405180910390fd5b6004600082815260200190815260200160002060006101000a81549073ffffffffffffffffffffffffffffffffffffffff02191690556001600360008573ffffffffffffffffffffffffffffffffffffffff1673ffffffffffffffffffffffffffffffffffffffff168152602001908152602001600020600082825403925050819055506001600360008473ffffffffffffffffffffffffffffffffffffffff1673ffffffffffffffffffffffffffffffffffffffff16815260200190815260200160002060008282540192505081905550816002600083815260200190815260200160002060006101000a81548173ffffffffffffffffffffffffffffffffffffffff021916908373ffffffffffffffffffffffffffffffffffffffff160217905550808273ffffffffffffffffffffffffffffffffffffffff168473ffffffffffffffffffffffffffffffffffffffff167fddf252ad1be2c89b69c2b068fc378daa952ba7f163c4a11628f55a4df523b3ef60405160405180910390a4611ecb8383836001612744565b505050565b60006002600083815260200190815260200160002060009054906101000a900473ffffffffffffffffffffffffffffffffffffffff169050919050565b6001816000016000828254019250508190555050565b600073ffffffffffffffffffffffffffffffffffffffff168273ffffffffffffffffffffffffffffffffffffffff161415611f93576040517f08c379a0000000000000000000000000000000000000000000000000000000008152600401611f8a90613d05565b60405180910390fd5b611f9c816126fd565b15611fdc576040517f08c379a0000000000000000000000000000000000000000000000000000000008152600401611fd390613d71565b60405180910390fd5b611fea60008383600161273e565b611ff3816126fd565b15612033576040517f08c379a000000000000000000000000000000000000000000000000000000000815260040161202a90613d71565b60405180910390fd5b6001600360008473ffffffffffffffffffffffffffffffffffffffff1673ffffffffffffffffffffffffffffffffffffffff16815260200190815260200160002060008282540192505081905550816002600083815260200190815260200160002060006101000a81548173ffffffffffffffffffffffffffffffffffffffff021916908373ffffffffffffffffffffffffffffffffffffffff160217905550808273ffffffffffffffffffffffffffffffffffffffff16600073ffffffffffffffffffffffffffffffffffffffff167fddf252ad1be2c89b69c2b068fc378daa952ba7f163c4a11628f55a4df523b3ef60405160405180910390a461213d600083836001612744565b5050565b61214a826126fd565b612189576040517f08c379a000000000000000000000000000000000000000000000000000000000815260040161218090613e03565b60405180910390fd5b806006600084815260200190815260200160002090805190602001906121b0929190612b8c565b507ff8e1a15aba9398e019f0b49df1a4fde98ee17ae345cb5f6b5e2c27f5033e8ce7826040516121e0919061306b565b60405180910390a15050565b6000811161222f576040517f08c379a000000000000000000000000000000000000000000000000000000000815260040161222690613e6f565b60405180910390fd5b6009543414612273576040517f08c379a000000000000000000000000000000000000000000000000000000000815260040161226a906139f1565b60405180910390fd5b6040518060a001604052808381526020013373ffffffffffffffffffffffffffffffffffffffff1681526020013073ffffffffffffffffffffffffffffffffffffffff16815260200182815260200160001515815250600b60008481526020019081526020016000206000820151816000015560208201518160010160006101000a81548173ffffffffffffffffffffffffffffffffffffffff021916908373ffffffffffffffffffffffffffffffffffffffff16021790555060408201518160020160006101000a81548173ffffffffffffffffffffffffffffffffffffffff021916908373ffffffffffffffffffffffffffffffffffffffff1602179055506060820151816003015560808201518160040160006101000a81548160ff0219169083151502179055509050506123ac333084611bd6565b817fb640004f1d14576d0c209e240cad0410e0d8c0c33a09375861fbadae2588a98d33308460006040516123e39493929190613e8f565b60405180910390a25050565b6000816000015490506000811161243b576040517f08c379a000000000000000000000000000000000000000000000000000000000815260040161243290613f20565b60405180910390fd5b6001810382600001819055505050565b8173ffffffffffffffffffffffffffffffffffffffff168373ffffffffffffffffffffffffffffffffffffffff1614156124ba576040517f08c379a00000000000000000000000000000000000000000000000000000000081526004016124b190613f8c565b60405180910390fd5b80600560008573ffffffffffffffffffffffffffffffffffffffff1673ffffffffffffffffffffffffffffffffffffffff16815260200190815260200160002060008473ffffffffffffffffffffffffffffffffffffffff1673ffffffffffffffffffffffffffffffffffffffff16815260200190815260200160002060006101000a81548160ff0219169083151502179055508173ffffffffffffffffffffffffffffffffffffffff168373ffffffffffffffffffffffffffffffffffffffff167f17307eab39ab6107e8899845ad3d59bd9653f200f220920489ca2b5937696c31836040516125ab9190612ce3565b60405180910390a3505050565b6125c3848484611bd6565b6125cf8484848461274a565b61260e576040517f08c379a00000000000000000000000000000000000000000000000000000000081526004016126059061401e565b60405180910390fd5b50505050565b606060405180602001604052806000815250905090565b606061263682611a27565b6000612640612614565b90506000815111612660576040518060200160405280600081525061268b565b8061266a846128e1565b60405160200161267b929190613b71565b6040516020818303038152906040525b915050919050565b60007f01ffc9a7000000000000000000000000000000000000000000000000000000007bffffffffffffffffffffffffffffffffffffffffffffffffffffffff1916827bffffffffffffffffffffffffffffffffffffffffffffffffffffffff1916149050919050565b60008073ffffffffffffffffffffffffffffffffffffffff1661271f83611ed0565b73ffffffffffffffffffffffffffffffffffffffff1614159050919050565b50505050565b50505050565b600061276b8473ffffffffffffffffffffffffffffffffffffffff166129b9565b156128d4578373ffffffffffffffffffffffffffffffffffffffff1663150b7a02612794611a72565b8786866040518563ffffffff1660e01b81526004016127b69493929190614093565b602060405180830381600087803b1580156127d057600080fd5b505af192505050801561280157506040513d601f19601f820116820180604052508101906127fe91906140f4565b60015b612884573d8060008114612831576040519150601f19603f3d011682016040523d82523d6000602084013e612836565b606091505b5060008151141561287c576040517f08c379a00000000000000000000000000000000000000000000000000000000081526004016128739061401e565b60405180910390fd5b805181602001fd5b63150b7a0260e01b7bffffffffffffffffffffffffffffffffffffffffffffffffffffffff1916817bffffffffffffffffffffffffffffffffffffffffffffffffffffffff1916149150506128d9565b600190505b949350505050565b6060600060016128f0846129dc565b01905060008167ffffffffffffffff81111561290f5761290e613110565b5b6040519080825280601f01601f1916602001820160405280156129415781602001600182028036833780820191505090505b509050600082602001820190505b6001156129ae578080600190039150507f3031323334353637383961626364656600000000000000000000000000000000600a86061a8153600a858161299857612997614121565b5b04945060008514156129a9576129ae565b61294f565b819350505050919050565b6000808273ffffffffffffffffffffffffffffffffffffffff163b119050919050565b600080600090507a184f03e93ff9f4daa797ed6e38ed64bf6a1f0100000000000000008310612a3a577a184f03e93ff9f4daa797ed6e38ed64bf6a1f0100000000000000008381612a3057612a2f614121565b5b0492506040810190505b6d04ee2d6d415b85acef81000000008310612a77576d04ee2d6d415b85acef81000000008381612a6d57612a6c614121565b5b0492506020810190505b662386f26fc100008310612aa657662386f26fc100008381612a9c57612a9b614121565b5b0492506010810190505b6305f5e1008310612acf576305f5e1008381612ac557612ac4614121565b5b0492506008810190505b6127108310612af4576127108381612aea57612ae9614121565b5b0492506004810190505b60648310612b175760648381612b0d57612b0c614121565b5b0492506002810190505b600a8310612b26576001810190505b80915050919050565b6040518060a0016040528060008152602001600073ffffffffffffffffffffffffffffffffffffffff168152602001600073ffffffffffffffffffffffffffffffffffffffff168152602001600081526020016000151581525090565b828054612b98906134d6565b90600052602060002090601f016020900481019282612bba5760008555612c01565b82601f10612bd357805160ff1916838001178555612c01565b82800160010185558215612c01579182015b82811115612c00578251825591602001919060010190612be5565b5b509050612c0e9190612c12565b5090565b5b80821115612c2b576000816000905550600101612c13565b5090565b6000604051905090565b600080fd5b600080fd5b60007fffffffff0000000000000000000000000000000000000000000000000000000082169050919050565b612c7881612c43565b8114612c8357600080fd5b50565b600081359050612c9581612c6f565b92915050565b600060208284031215612cb157612cb0612c39565b5b6000612cbf84828501612c86565b91505092915050565b60008115159050919050565b612cdd81612cc8565b82525050565b6000602082019050612cf86000830184612cd4565b92915050565b600081519050919050565b600082825260208201905092915050565b60005b83811015612d38578082015181840152602081019050612d1d565b83811115612d47576000848401525b50505050565b6000601f19601f8301169050919050565b6000612d6982612cfe565b612d738185612d09565b9350612d83818560208601612d1a565b612d8c81612d4d565b840191505092915050565b60006020820190508181036000830152612db18184612d5e565b905092915050565b6000819050919050565b612dcc81612db9565b8114612dd757600080fd5b50565b600081359050612de981612dc3565b92915050565b600060208284031215612e0557612e04612c39565b5b6000612e1384828501612dda565b91505092915050565b600073ffffffffffffffffffffffffffffffffffffffff82169050919050565b6000612e4782612e1c565b9050919050565b612e5781612e3c565b82525050565b6000602082019050612e726000830184612e4e565b92915050565b612e8181612e3c565b8114612e8c57600080fd5b50565b600081359050612e9e81612e78565b92915050565b60008060408385031215612ebb57612eba612c39565b5b6000612ec985828601612e8f565b9250506020612eda85828601612dda565b9150509250929050565b600081519050919050565b600082825260208201905092915050565b6000819050602082019050919050565b612f1981612db9565b82525050565b6000612f2a82612e1c565b9050919050565b612f3a81612f1f565b82525050565b612f4981612cc8565b82525050565b60a082016000820151612f656000850182612f10565b506020820151612f786020850182612f31565b506040820151612f8b6040850182612f31565b506060820151612f9e6060850182612f10565b506080820151612fb16080850182612f40565b50505050565b6000612fc38383612f4f565b60a08301905092915050565b6000602082019050919050565b6000612fe782612ee4565b612ff18185612eef565b9350612ffc83612f00565b8060005b8381101561302d5781516130148882612fb7565b975061301f83612fcf565b925050600181019050613000565b5085935050505092915050565b600060208201905081810360008301526130548184612fdc565b905092915050565b61306581612db9565b82525050565b6000602082019050613080600083018461305c565b92915050565b60008060006060848603121561309f5761309e612c39565b5b60006130ad86828701612e8f565b93505060206130be86828701612e8f565b92505060406130cf86828701612dda565b9150509250925092565b6000602082840312156130ef576130ee612c39565b5b60006130fd84828501612e8f565b91505092915050565b600080fd5b600080fd5b7f4e487b7100000000000000000000000000000000000000000000000000000000600052604160045260246000fd5b61314882612d4d565b810181811067ffffffffffffffff8211171561316757613166613110565b5b80604052505050565b600061317a612c2f565b9050613186828261313f565b919050565b600067ffffffffffffffff8211156131a6576131a5613110565b5b6131af82612d4d565b9050602081019050919050565b82818337600083830152505050565b60006131de6131d98461318b565b613170565b9050828152602081018484840111156131fa576131f961310b565b5b6132058482856131bc565b509392505050565b600082601f83011261322257613221613106565b5b81356132328482602086016131cb565b91505092915050565b6000806040838503121561325257613251612c39565b5b600083013567ffffffffffffffff8111156132705761326f612c3e565b5b61327c8582860161320d565b925050602061328d85828601612dda565b9150509250929050565b600080604083850312156132ae576132ad612c39565b5b60006132bc85828601612dda565b92505060206132cd85828601612dda565b9150509250929050565b6132e081612cc8565b81146132eb57600080fd5b50565b6000813590506132fd816132d7565b92915050565b6000806040838503121561331a57613319612c39565b5b600061332885828601612e8f565b9250506020613339858286016132ee565b9150509250929050565b600067ffffffffffffffff82111561335e5761335d613110565b5b61336782612d4d565b9050602081019050919050565b600061338761338284613343565b613170565b9050828152602081018484840111156133a3576133a261310b565b5b6133ae8482856131bc565b509392505050565b600082601f8301126133cb576133ca613106565b5b81356133db848260208601613374565b91505092915050565b600080600080608085870312156133fe576133fd612c39565b5b600061340c87828801612e8f565b945050602061341d87828801612e8f565b935050604061342e87828801612dda565b925050606085013567ffffffffffffffff81111561344f5761344e612c3e565b5b61345b878288016133b6565b91505092959194509250565b6000806040838503121561347e5761347d612c39565b5b600061348c85828601612e8f565b925050602061349d85828601612e8f565b9150509250929050565b7f4e487b7100000000000000000000000000000000000000000000000000000000600052602260045260246000fd5b600060028204905060018216806134ee57607f821691505b60208210811415613502576135016134a7565b5b50919050565b7f4552433732313a20617070726f76616c20746f2063757272656e74206f776e6560008201527f7200000000000000000000000000000000000000000000000000000000000000602082015250565b6000613564602183612d09565b915061356f82613508565b604082019050919050565b6000602082019050818103600083015261359381613557565b9050919050565b7f4552433732313a20617070726f76652063616c6c6572206973206e6f7420746f60008201527f6b656e206f776e6572206f7220617070726f76656420666f7220616c6c000000602082015250565b60006135f6603d83612d09565b91506136018261359a565b604082019050919050565b60006020820190508181036000830152613625816135e9565b9050919050565b7f4e487b7100000000000000000000000000000000000000000000000000000000600052601160045260246000fd5b600061366682612db9565b915061367183612db9565b9250828210156136845761368361362c565b5b828203905092915050565b600061369a82612db9565b91506136a583612db9565b9250827fffffffffffffffffffffffffffffffffffffffffffffffffffffffffffffffff038211156136da576136d961362c565b5b828201905092915050565b7f4e487b7100000000000000000000000000000000000000000000000000000000600052603260045260246000fd5b600061371f82612db9565b91507fffffffffffffffffffffffffffffffffffffffffffffffffffffffffffffffff8214156137525761375161362c565b5b600182019050919050565b7f4552433732313a2063616c6c6572206973206e6f7420746f6b656e206f776e6560008201527f72206f7220617070726f76656400000000000000000000000000000000000000602082015250565b60006137b9602d83612d09565b91506137c48261375d565b604082019050919050565b600060208201905081810360008301526137e8816137ac565b9050919050565b7f4552433732313a20696e76616c696420746f6b656e2049440000000000000000600082015250565b6000613825601883612d09565b9150613830826137ef565b602082019050919050565b6000602082019050818103600083015261385481613818565b9050919050565b7f4552433732313a2061646472657373207a65726f206973206e6f74206120766160008201527f6c6964206f776e65720000000000000000000000000000000000000000000000602082015250565b60006138b7602983612d09565b91506138c28261385b565b604082019050919050565b600060208201905081810360008301526138e6816138aa565b9050919050565b7f4f6e6c79206974656d206f776e65722063616e20706572666f726d207468697360008201527f206f7065726174696f6e00000000000000000000000000000000000000000000602082015250565b6000613949602a83612d09565b9150613954826138ed565b604082019050919050565b600060208201905081810360008301526139788161393c565b9050919050565b7f5072696365206d75737420626520657175616c20746f206c697374696e67207060008201527f7269636500000000000000000000000000000000000000000000000000000000602082015250565b60006139db602483612d09565b91506139e68261397f565b604082019050919050565b60006020820190508181036000830152613a0a816139ce565b9050919050565b7f4f6e6c79206f776e6572206f6620746865206d61726b6574706c61636520636160008201527f6e206368616e676520746865206c697374696e67207072696365000000000000602082015250565b6000613a6d603a83612d09565b9150613a7882613a11565b604082019050919050565b60006020820190508181036000830152613a9c81613a60565b9050919050565b7f506c65617365207375626d6974207468652061736b696e67207072696365206960008201527f6e206f7264657220746f20636f6d706c65746520746865207075726368617365602082015250565b6000613aff604083612d09565b9150613b0a82613aa3565b604082019050919050565b60006020820190508181036000830152613b2e81613af2565b9050919050565b600081905092915050565b6000613b4b82612cfe565b613b558185613b35565b9350613b65818560208601612d1a565b80840191505092915050565b6000613b7d8285613b40565b9150613b898284613b40565b91508190509392505050565b7f4552433732313a207472616e736665722066726f6d20696e636f72726563742060008201527f6f776e6572000000000000000000000000000000000000000000000000000000602082015250565b6000613bf1602583612d09565b9150613bfc82613b95565b604082019050919050565b60006020820190508181036000830152613c2081613be4565b9050919050565b7f4552433732313a207472616e7366657220746f20746865207a65726f2061646460008201527f7265737300000000000000000000000000000000000000000000000000000000602082015250565b6000613c83602483612d09565b9150613c8e82613c27565b604082019050919050565b60006020820190508181036000830152613cb281613c76565b9050919050565b7f4552433732313a206d696e7420746f20746865207a65726f2061646472657373600082015250565b6000613cef602083612d09565b9150613cfa82613cb9565b602082019050919050565b60006020820190508181036000830152613d1e81613ce2565b9050919050565b7f4552433732313a20746f6b656e20616c7265616479206d696e74656400000000600082015250565b6000613d5b601c83612d09565b9150613d6682613d25565b602082019050919050565b60006020820190508181036000830152613d8a81613d4e565b9050919050565b7f45524337323155524953746f726167653a2055524920736574206f66206e6f6e60008201527f6578697374656e7420746f6b656e000000000000000000000000000000000000602082015250565b6000613ded602e83612d09565b9150613df882613d91565b604082019050919050565b60006020820190508181036000830152613e1c81613de0565b9050919050565b7f5072696365206d757374206265206174206c6561737420310000000000000000600082015250565b6000613e59601883612d09565b9150613e6482613e23565b602082019050919050565b60006020820190508181036000830152613e8881613e4c565b9050919050565b6000608082019050613ea46000830187612e4e565b613eb16020830186612e4e565b613ebe604083018561305c565b613ecb6060830184612cd4565b95945050505050565b7f436f756e7465723a2064656372656d656e74206f766572666c6f770000000000600082015250565b6000613f0a601b83612d09565b9150613f1582613ed4565b602082019050919050565b60006020820190508181036000830152613f3981613efd565b9050919050565b7f4552433732313a20617070726f766520746f2063616c6c657200000000000000600082015250565b6000613f76601983612d09565b9150613f8182613f40565b602082019050919050565b60006020820190508181036000830152613fa581613f69565b9050919050565b7f4552433732313a207472616e7366657220746f206e6f6e20455243373231526560008201527f63656976657220696d706c656d656e7465720000000000000000000000000000602082015250565b6000614008603283612d09565b915061401382613fac565b604082019050919050565b6000602082019050818103600083015261403781613ffb565b9050919050565b600081519050919050565b600082825260208201905092915050565b60006140658261403e565b61406f8185614049565b935061407f818560208601612d1a565b61408881612d4d565b840191505092915050565b60006080820190506140a86000830187612e4e565b6140b56020830186612e4e565b6140c2604083018561305c565b81810360608301526140d4818461405a565b905095945050505050565b6000815190506140ee81612c6f565b92915050565b60006020828403121561410a57614109612c39565b5b6000614118848285016140df565b91505092915050565b7f4e487b7100000000000000000000000000000000000000000000000000000000600052601260045260246000fdfea26469706673582212203d3ad2cca4cac97f04601cc48459d9acf5e29cac1b5b95ab564456bf62d4ea3e64736f6c63430008090033",
  "linkReferences": {},
  "deployedLinkReferences": {}
}