{
  "_format": "hh-sol-artifact-1",
  "contractName": "NFTPlatform",
  "sourceName": "contracts/NFTPlatform.sol",
  "abi": [
    {
      "inputs": [],
      "stateMutability": "nonpayable",
      "type": "constructor"
    },
    {
      "anonymous": false,
      "inputs": [
        {
          "indexed": true,
          "internalType": "address",
          "name": "owner",
          "type": "address"
        },
        {
          "indexed": true,
          "internalType": "address",
          "name": "approved",
          "type": "address"
        },
        {
          "indexed": true,
          "internalType": "uint256",
          "name": "tokenId",
          "type": "uint256"
        }
      ],
      "name": "Approval",
      "type": "event"
    },
    {
      "anonymous": false,
      "inputs": [
        {
          "indexed": true,
          "internalType": "address",
          "name": "owner",
          "type": "address"
        },
        {
          "indexed": true,
          "internalType": "address",
          "name": "operator",
          "type": "address"
        },
        {
          "indexed": false,
          "internalType": "bool",
          "name": "approved",
          "type": "bool"
        }
      ],
      "name": "ApprovalForAll",
      "type": "event"
    },
    {
      "anonymous": false,
      "inputs": [
        {
          "indexed": false,
          "internalType": "uint256",
          "name": "_fromTokenId",
          "type": "uint256"
        },
        {
          "indexed": false,
          "internalType": "uint256",
          "name": "_toTokenId",
          "type": "uint256"
        }
      ],
      "name": "BatchMetadataUpdate",
      "type": "event"
    },
    {
      "anonymous": false,
      "inputs": [
        {
          "indexed": true,
          "internalType": "uint256",
          "name": "tokenId",
          "type": "uint256"
        },
        {
          "indexed": false,
          "internalType": "address",
          "name": "seller",
          "type": "address"
        },
        {
          "indexed": false,
          "internalType": "address",
          "name": "owner",
          "type": "address"
        },
        {
          "indexed": false,
          "internalType": "uint256",
          "name": "price",
          "type": "uint256"
        },
        {
          "indexed": false,
          "internalType": "bool",
          "name": "sold",
          "type": "bool"
        }
      ],
      "name": "MarketItemCreated",
      "type": "event"
    },
    {
      "anonymous": false,
      "inputs": [
        {
          "indexed": false,
          "internalType": "uint256",
          "name": "_tokenId",
          "type": "uint256"
        }
      ],
      "name": "MetadataUpdate",
      "type": "event"
    },
    {
      "anonymous": false,
      "inputs": [
        {
          "indexed": true,
          "internalType": "address",
          "name": "from",
          "type": "address"
        },
        {
          "indexed": true,
          "internalType": "address",
          "name": "to",
          "type": "address"
        },
        {
          "indexed": true,
          "internalType": "uint256",
          "name": "tokenId",
          "type": "uint256"
        }
      ],
      "name": "Transfer",
      "type": "event"
    },
    {
      "inputs": [
        {
          "internalType": "address",
          "name": "to",
          "type": "address"
        },
        {
          "internalType": "uint256",
          "name": "tokenId",
          "type": "uint256"
        }
      ],
      "name": "approve",
      "outputs": [],
      "stateMutability": "nonpayable",
      "type": "function"
    },
    {
      "inputs": [
        {
          "internalType": "address",
          "name": "owner",
          "type": "address"
        }
      ],
      "name": "balanceOf",
      "outputs": [
        {
          "internalType": "uint256",
          "name": "",
          "type": "uint256"
        }
      ],
      "stateMutability": "view",
      "type": "function"
    },
    {
      "inputs": [
        {
          "internalType": "uint256",
          "name": "tokenId",
          "type": "uint256"
        }
      ],
      "name": "createMarketSale",
      "outputs": [],
      "stateMutability": "payable",
      "type": "function"
    },
    {
      "inputs": [
        {
          "internalType": "string",
          "name": "tokenURI",
          "type": "string"
        },
        {
          "internalType": "uint256",
          "name": "price",
          "type": "uint256"
        }
      ],
      "name": "createToken",
      "outputs": [
        {
          "internalType": "uint256",
          "name": "",
          "type": "uint256"
        }
      ],
      "stateMutability": "payable",
      "type": "function"
    },
    {
      "inputs": [],
      "name": "fetchItemsListed",
      "outputs": [
        {
          "components": [
            {
              "internalType": "uint256",
              "name": "tokenId",
              "type": "uint256"
            },
            {
              "internalType": "address payable",
              "name": "seller",
              "type": "address"
            },
            {
              "internalType": "address payable",
              "name": "owner",
              "type": "address"
            },
            {
              "internalType": "uint256",
              "name": "price",
              "type": "uint256"
            },
            {
              "internalType": "bool",
              "name": "sold",
              "type": "bool"
            }
          ],
          "internalType": "struct NFTPlatform.MarketItem[]",
          "name": "",
          "type": "tuple[]"
        }
      ],
      "stateMutability": "view",
      "type": "function"
    },
    {
      "inputs": [],
      "name": "fetchMarketItems",
      "outputs": [
        {
          "components": [
            {
              "internalType": "uint256",
              "name": "tokenId",
              "type": "uint256"
            },
            {
              "internalType": "address payable",
              "name": "seller",
              "type": "address"
            },
            {
              "internalType": "address payable",
              "name": "owner",
              "type": "address"
            },
            {
              "internalType": "uint256",
              "name": "price",
              "type": "uint256"
            },
            {
              "internalType": "bool",
              "name": "sold",
              "type": "bool"
            }
          ],
          "internalType": "struct NFTPlatform.MarketItem[]",
          "name": "",
          "type": "tuple[]"
        }
      ],
      "stateMutability": "view",
      "type": "function"
    },
    {
      "inputs": [],
      "name": "fetchMyNFTs",
      "outputs": [
        {
          "components": [
            {
              "internalType": "uint256",
              "name": "tokenId",
              "type": "uint256"
            },
            {
              "internalType": "address payable",
              "name": "seller",
              "type": "address"
            },
            {
              "internalType": "address payable",
              "name": "owner",
              "type": "address"
            },
            {
              "internalType": "uint256",
              "name": "price",
              "type": "uint256"
            },
            {
              "internalType": "bool",
              "name": "sold",
              "type": "bool"
            }
          ],
          "internalType": "struct NFTPlatform.MarketItem[]",
          "name": "",
          "type": "tuple[]"
        }
      ],
      "stateMutability": "view",
      "type": "function"
    },
    {
      "inputs": [
        {
          "internalType": "uint256",
          "name": "tokenId",
          "type": "uint256"
        }
      ],
      "name": "getApproved",
      "outputs": [
        {
          "internalType": "address",
          "name": "",
          "type": "address"
        }
      ],
      "stateMutability": "view",
      "type": "function"
    },
    {
      "inputs": [],
      "name": "getListingPrice",
      "outputs": [
        {
          "internalType": "uint256",
          "name": "",
          "type": "uint256"
        }
      ],
      "stateMutability": "view",
      "type": "function"
    },
    {
      "inputs": [
        {
          "internalType": "address",
          "name": "owner",
          "type": "address"
        },
        {
          "internalType": "address",
          "name": "operator",
          "type": "address"
        }
      ],
      "name": "isApprovedForAll",
      "outputs": [
        {
          "internalType": "bool",
          "name": "",
          "type": "bool"
        }
      ],
      "stateMutability": "view",
      "type": "function"
    },
    {
      "inputs": [],
      "name": "name",
      "outputs": [
        {
          "internalType": "string",
          "name": "",
          "type": "string"
        }
      ],
      "stateMutability": "view",
      "type": "function"
    },
    {
      "inputs": [
        {
          "internalType": "uint256",
          "name": "tokenId",
          "type": "uint256"
        }
      ],
      "name": "ownerOf",
      "outputs": [
        {
          "internalType": "address",
          "name": "",
          "type": "address"
        }
      ],
      "stateMutability": "view",
      "type": "function"
    },
    {
      "inputs": [
        {
          "internalType": "uint256",
          "name": "tokenId",
          "type": "uint256"
        },
        {
          "internalType": "uint256",
          "name": "price",
          "type": "uint256"
        }
      ],
      "name": "reSellToken",
      "outputs": [],
      "stateMutability": "payable",
      "type": "function"
    },
    {
      "inputs": [
        {
          "internalType": "address",
          "name": "from",
          "type": "address"
        },
        {
          "internalType": "address",
          "name": "to",
          "type": "address"
        },
        {
          "internalType": "uint256",
          "name": "tokenId",
          "type": "uint256"
        }
      ],
      "name": "safeTransferFrom",
      "outputs": [],
      "stateMutability": "nonpayable",
      "type": "function"
    },
    {
      "inputs": [
        {
          "internalType": "address",
          "name": "from",
          "type": "address"
        },
        {
          "internalType": "address",
          "name": "to",
          "type": "address"
        },
        {
          "internalType": "uint256",
          "name": "tokenId",
          "type": "uint256"
        },
        {
          "internalType": "bytes",
          "name": "data",
          "type": "bytes"
        }
      ],
      "name": "safeTransferFrom",
      "outputs": [],
      "stateMutability": "nonpayable",
      "type": "function"
    },
    {
      "inputs": [
        {
          "internalType": "address",
          "name": "operator",
          "type": "address"
        },
        {
          "internalType": "bool",
          "name": "approved",
          "type": "bool"
        }
      ],
      "name": "setApprovalForAll",
      "outputs": [],
      "stateMutability": "nonpayable",
      "type": "function"
    },
    {
      "inputs": [
        {
          "internalType": "bytes4",
          "name": "interfaceId",
          "type": "bytes4"
        }
      ],
      "name": "supportsInterface",
      "outputs": [
        {
          "internalType": "bool",
          "name": "",
          "type": "bool"
        }
      ],
      "stateMutability": "view",
      "type": "function"
    },
    {
      "inputs": [],
      "name": "symbol",
      "outputs": [
        {
          "internalType": "string",
          "name": "",
          "type": "string"
        }
      ],
      "stateMutability": "view",
      "type": "function"
    },
    {
      "inputs": [
        {
          "internalType": "uint256",
          "name": "tokenId",
          "type": "uint256"
        }
      ],
      "name": "tokenURI",
      "outputs": [
        {
          "internalType": "string",
          "name": "",
          "type": "string"
        }
      ],
      "stateMutability": "view",
      "type": "function"
    },
    {
      "inputs": [
        {
          "internalType": "address",
          "name": "from",
          "type": "address"
        },
        {
          "internalType": "address",
          "name": "to",
          "type": "address"
        },
        {
          "internalType": "uint256",
          "name": "tokenId",
          "type": "uint256"
        }
      ],
      "name": "transferFrom",
      "outputs": [],
      "stateMutability": "nonpayable",
      "type": "function"
    },
    {
      "inputs": [
        {
          "internalType": "uint256",
          "name": "_listingPrice",
          "type": "uint256"
        }
      ],
      "name": "updateListingPrice",
      "outputs": [],
      "stateMutability": "payable",
      "type": "function"
    }
  ],
  "bytecode": "0x60806040526605543df729c0006009553480156200001c57600080fd5b506040518060400160405280601381526020017f4e4654204d657461766172736520546f6b656e000000000000000000000000008152506040518060400160405280600581526020017f4d594e46540000000000000000000000000000000000000000000000000000008152508160009080519060200190620000a1929190620000e9565b508060019080519060200190620000ba929190620000e9565b5050503373ffffffffffffffffffffffffffffffffffffffff16600a60009054906101000a90505050620001fe565b828054620000f790620001c8565b90600052602060002090601f0160209004810192826200011b576000855562000167565b82601f106200013657805160ff191683800117855562000167565b8280016001018555821562000167579182015b828111156200016657825182559160200191906001019062000149565b5b5090506200017691906200017a565b5090565b5b80821115620001955760008160009055506001016200017b565b5090565b7f4e487b7100000000000000000000000000000000000000000000000000000000600052602260045260246000fd5b60006002820490506001821680620001e157607f821691505b60208210811415620001f857620001f762000199565b5b50919050565b61414a806200020e6000396000f3fe60806040526004361061012a5760003560e01c80636352211e116100ab578063a22cb4651161006f578063a22cb465146103ec578063ae677aa314610415578063b88d4fde14610431578063be9af5361461045a578063c87b56dd14610476578063e985e9c5146104b35761012a565b80636352211e146102fb57806370a082311461033857806372b3b6201461037557806385535b25146103a557806395d89b41146103c15761012a565b806312e85585116100f257806312e8558514610228578063202e37401461025357806323b872dd1461027e57806342842e0e146102a757806345f8fa80146102d05761012a565b806301ffc9a71461012f57806306fdde031461016c578063081812fc14610197578063095ea7b3146101d45780630f08efe0146101fd575b600080fd5b34801561013b57600080fd5b5061015660048036038101906101519190612c5f565b6104f0565b6040516101639190612ca7565b60405180910390f35b34801561017857600080fd5b50610181610551565b60405161018e9190612d5b565b60405180910390f35b3480156101a357600080fd5b506101be60048036038101906101b99190612db3565b6105e3565b6040516101cb9190612e21565b60405180910390f35b3480156101e057600080fd5b506101fb60048036038101906101f69190612e68565b610629565b005b34801561020957600080fd5b50610212610741565b60405161021f9190612ffe565b60405180910390f35b34801561023457600080fd5b5061023d6109aa565b60405161024a919061302f565b60405180910390f35b34801561025f57600080fd5b506102686109b4565b6040516102759190612ffe565b60405180910390f35b34801561028a57600080fd5b506102a560048036038101906102a0919061304a565b610ca2565b005b3480156102b357600080fd5b506102ce60048036038101906102c9919061304a565b610d02565b005b3480156102dc57600080fd5b506102e5610d22565b6040516102f29190612ffe565b60405180910390f35b34801561030757600080fd5b50610322600480360381019061031d9190612db3565b611010565b60405161032f9190612e21565b60405180910390f35b34801561034457600080fd5b5061035f600480360381019061035a919061309d565b611097565b60405161036c919061302f565b60405180910390f35b61038f600480360381019061038a91906131ff565b61114f565b60405161039c919061302f565b60405180910390f35b6103bf60048036038101906103ba919061325b565b611191565b005b3480156103cd57600080fd5b506103d6611386565b6040516103e39190612d5b565b60405180910390f35b3480156103f857600080fd5b50610413600480360381019061040e91906132c7565b611418565b005b61042f600480360381019061042a9190612db3565b61142e565b005b34801561043d57600080fd5b50610458600480360381019061045391906133a8565b6114c8565b005b610474600480360381019061046f9190612db3565b61152a565b005b34801561048257600080fd5b5061049d60048036038101906104989190612db3565b611762565b6040516104aa9190612d5b565b60405180910390f35b3480156104bf57600080fd5b506104da60048036038101906104d5919061342b565b611875565b6040516104e79190612ca7565b60405180910390f35b6000634906490660e01b7bffffffffffffffffffffffffffffffffffffffffffffffffffffffff1916827bffffffffffffffffffffffffffffffffffffffffffffffffffffffff1916148061054a575061054982611909565b5b9050919050565b6060600080546105609061349a565b80601f016020809104026020016040519081016040528092919081815260200182805461058c9061349a565b80156105d95780601f106105ae576101008083540402835291602001916105d9565b820191906000526020600020905b8154815290600101906020018083116105bc57829003601f168201915b5050505050905090565b60006105ee826119eb565b6004600083815260200190815260200160002060009054906101000a900473ffffffffffffffffffffffffffffffffffffffff169050919050565b600061063482611010565b90508073ffffffffffffffffffffffffffffffffffffffff168373ffffffffffffffffffffffffffffffffffffffff1614156106a5576040517f08c379a000000000000000000000000000000000000000000000000000000000815260040161069c9061353e565b60405180910390fd5b8073ffffffffffffffffffffffffffffffffffffffff166106c4611a36565b73ffffffffffffffffffffffffffffffffffffffff1614806106f357506106f2816106ed611a36565b611875565b5b610732576040517f08c379a0000000000000000000000000000000000000000000000000000000008152600401610729906135d0565b60405180910390fd5b61073c8383611a3e565b505050565b6060600061074f6007611af7565b9050600061075d6008611af7565b6107676007611af7565b610771919061361f565b90506000808267ffffffffffffffff8111156107905761078f6130d4565b5b6040519080825280602002602001820160405280156107c957816020015b6107b6612af3565b8152602001906001900390816107ae5790505b50905060005b8481101561099f573073ffffffffffffffffffffffffffffffffffffffff16600b60006001846107ff9190613653565b815260200190815260200160002060020160009054906101000a900473ffffffffffffffffffffffffffffffffffffffff1673ffffffffffffffffffffffffffffffffffffffff16141561098c57600060018261085c9190613653565b90506000600b60008381526020019081526020016000209050806040518060a0016040529081600082015481526020016001820160009054906101000a900473ffffffffffffffffffffffffffffffffffffffff1673ffffffffffffffffffffffffffffffffffffffff1673ffffffffffffffffffffffffffffffffffffffff1681526020016002820160009054906101000a900473ffffffffffffffffffffffffffffffffffffffff1673ffffffffffffffffffffffffffffffffffffffff1673ffffffffffffffffffffffffffffffffffffffff168152602001600382015481526020016004820160009054906101000a900460ff16151515158152505084868151811061096f5761096e6136a9565b5b60200260200101819052506001856109879190613653565b945050505b8080610997906136d8565b9150506107cf565b508094505050505090565b6000600954905090565b606060006109c26007611af7565b905060008060005b83811015610a6b573373ffffffffffffffffffffffffffffffffffffffff16600b60006001846109fa9190613653565b815260200190815260200160002060020160009054906101000a900473ffffffffffffffffffffffffffffffffffffffff1673ffffffffffffffffffffffffffffffffffffffff161415610a5857600183610a559190613653565b92505b8080610a63906136d8565b9150506109ca565b5060008267ffffffffffffffff811115610a8857610a876130d4565b5b604051908082528060200260200182016040528015610ac157816020015b610aae612af3565b815260200190600190039081610aa65790505b50905060005b84811015610c97573373ffffffffffffffffffffffffffffffffffffffff16600b6000600184610af79190613653565b815260200190815260200160002060020160009054906101000a900473ffffffffffffffffffffffffffffffffffffffff1673ffffffffffffffffffffffffffffffffffffffff161415610c84576000600182610b549190613653565b90506000600b60008381526020019081526020016000209050806040518060a0016040529081600082015481526020016001820160009054906101000a900473ffffffffffffffffffffffffffffffffffffffff1673ffffffffffffffffffffffffffffffffffffffff1673ffffffffffffffffffffffffffffffffffffffff1681526020016002820160009054906101000a900473ffffffffffffffffffffffffffffffffffffffff1673ffffffffffffffffffffffffffffffffffffffff1673ffffffffffffffffffffffffffffffffffffffff168152602001600382015481526020016004820160009054906101000a900460ff161515151581525050848681518110610c6757610c666136a9565b5b6020026020010181905250600185610c7f9190613653565b945050505b8080610c8f906136d8565b915050610ac7565b508094505050505090565b610cb3610cad611a36565b82611b05565b610cf2576040517f08c379a0000000000000000000000000000000000000000000000000000000008152600401610ce990613793565b60405180910390fd5b610cfd838383611b9a565b505050565b610d1d838383604051806020016040528060008152506114c8565b505050565b60606000610d306007611af7565b905060008060005b83811015610dd9573373ffffffffffffffffffffffffffffffffffffffff16600b6000600184610d689190613653565b815260200190815260200160002060010160009054906101000a900473ffffffffffffffffffffffffffffffffffffffff1673ffffffffffffffffffffffffffffffffffffffff161415610dc657600183610dc39190613653565b92505b8080610dd1906136d8565b915050610d38565b5060008267ffffffffffffffff811115610df657610df56130d4565b5b604051908082528060200260200182016040528015610e2f57816020015b610e1c612af3565b815260200190600190039081610e145790505b50905060005b84811015611005573373ffffffffffffffffffffffffffffffffffffffff16600b6000600184610e659190613653565b815260200190815260200160002060010160009054906101000a900473ffffffffffffffffffffffffffffffffffffffff1673ffffffffffffffffffffffffffffffffffffffff161415610ff2576000600182610ec29190613653565b90506000600b60008381526020019081526020016000209050806040518060a0016040529081600082015481526020016001820160009054906101000a900473ffffffffffffffffffffffffffffffffffffffff1673ffffffffffffffffffffffffffffffffffffffff1673ffffffffffffffffffffffffffffffffffffffff1681526020016002820160009054906101000a900473ffffffffffffffffffffffffffffffffffffffff1673ffffffffffffffffffffffffffffffffffffffff1673ffffffffffffffffffffffffffffffffffffffff168152602001600382015481526020016004820160009054906101000a900460ff161515151581525050848681518110610fd557610fd46136a9565b5b6020026020010181905250600185610fed9190613653565b945050505b8080610ffd906136d8565b915050610e35565b508094505050505090565b60008061101c83611e94565b9050600073ffffffffffffffffffffffffffffffffffffffff168173ffffffffffffffffffffffffffffffffffffffff16141561108e576040517f08c379a0000000000000000000000000000000000000000000000000000000008152600401611085906137ff565b60405180910390fd5b80915050919050565b60008073ffffffffffffffffffffffffffffffffffffffff168273ffffffffffffffffffffffffffffffffffffffff161415611108576040517f08c379a00000000000000000000000000000000000000000000000000000000081526004016110ff90613891565b60405180910390fd5b600360008373ffffffffffffffffffffffffffffffffffffffff1673ffffffffffffffffffffffffffffffffffffffff168152602001908152602001600020549050919050565b600061115b6007611ed1565b60006111676007611af7565b90506111733382611ee7565b61117d8185612105565b61118781846121b0565b8091505092915050565b3373ffffffffffffffffffffffffffffffffffffffff16600b600084815260200190815260200160002060020160009054906101000a900473ffffffffffffffffffffffffffffffffffffffff1673ffffffffffffffffffffffffffffffffffffffff1614611235576040517f08c379a000000000000000000000000000000000000000000000000000000000815260040161122c90613923565b60405180910390fd5b6009543414611279576040517f08c379a0000000000000000000000000000000000000000000000000000000008152600401611270906139b5565b60405180910390fd5b6000600b600084815260200190815260200160002060040160006101000a81548160ff02191690831515021790555080600b60008481526020019081526020016000206003018190555033600b600084815260200190815260200160002060010160006101000a81548173ffffffffffffffffffffffffffffffffffffffff021916908373ffffffffffffffffffffffffffffffffffffffff16021790555030600b600084815260200190815260200160002060020160006101000a81548173ffffffffffffffffffffffffffffffffffffffff021916908373ffffffffffffffffffffffffffffffffffffffff16021790555061137760086123b3565b611382333084611b9a565b5050565b6060600180546113959061349a565b80601f01602080910402602001604051908101604052809291908181526020018280546113c19061349a565b801561140e5780601f106113e35761010080835404028352916020019161140e565b820191906000526020600020905b8154815290600101906020018083116113f157829003601f168201915b5050505050905090565b61142a611423611a36565b838361240f565b5050565b600a60009054906101000a900473ffffffffffffffffffffffffffffffffffffffff1673ffffffffffffffffffffffffffffffffffffffff163373ffffffffffffffffffffffffffffffffffffffff16146114be576040517f08c379a00000000000000000000000000000000000000000000000000000000081526004016114b590613a47565b60405180910390fd5b8060098190555050565b6114d96114d3611a36565b83611b05565b611518576040517f08c379a000000000000000000000000000000000000000000000000000000000815260040161150f90613793565b60405180910390fd5b6115248484848461257c565b50505050565b6000600b6000838152602001908152602001600020600301549050803414611587576040517f08c379a000000000000000000000000000000000000000000000000000000000815260040161157e90613ad9565b60405180910390fd5b33600b600084815260200190815260200160002060020160006101000a81548173ffffffffffffffffffffffffffffffffffffffff021916908373ffffffffffffffffffffffffffffffffffffffff1602179055506001600b600084815260200190815260200160002060040160006101000a81548160ff0219169083151502179055506000600b600084815260200190815260200160002060020160006101000a81548173ffffffffffffffffffffffffffffffffffffffff021916908373ffffffffffffffffffffffffffffffffffffffff16021790555061166b6008611ed1565b611676303384611b9a565b600a60009054906101000a900473ffffffffffffffffffffffffffffffffffffffff1673ffffffffffffffffffffffffffffffffffffffff166108fc6009549081150290604051600060405180830381858888f193505050501580156116e0573d6000803e3d6000fd5b50600b600083815260200190815260200160002060010160009054906101000a900473ffffffffffffffffffffffffffffffffffffffff1673ffffffffffffffffffffffffffffffffffffffff166108fc349081150290604051600060405180830381858888f1935050505015801561175d573d6000803e3d6000fd5b505050565b606061176d826119eb565b600060066000848152602001908152602001600020805461178d9061349a565b80601f01602080910402602001604051908101604052809291908181526020018280546117b99061349a565b80156118065780601f106117db57610100808354040283529160200191611806565b820191906000526020600020905b8154815290600101906020018083116117e957829003601f168201915b5050505050905060006118176125d8565b905060008151141561182d578192505050611870565b60008251111561186257808260405160200161184a929190613b35565b60405160208183030381529060405292505050611870565b61186b846125ef565b925050505b919050565b6000600560008473ffffffffffffffffffffffffffffffffffffffff1673ffffffffffffffffffffffffffffffffffffffff16815260200190815260200160002060008373ffffffffffffffffffffffffffffffffffffffff1673ffffffffffffffffffffffffffffffffffffffff16815260200190815260200160002060009054906101000a900460ff16905092915050565b60007f80ac58cd000000000000000000000000000000000000000000000000000000007bffffffffffffffffffffffffffffffffffffffffffffffffffffffff1916827bffffffffffffffffffffffffffffffffffffffffffffffffffffffff191614806119d457507f5b5e139f000000000000000000000000000000000000000000000000000000007bffffffffffffffffffffffffffffffffffffffffffffffffffffffff1916827bffffffffffffffffffffffffffffffffffffffffffffffffffffffff1916145b806119e457506119e382612657565b5b9050919050565b6119f4816126c1565b611a33576040517f08c379a0000000000000000000000000000000000000000000000000000000008152600401611a2a906137ff565b60405180910390fd5b50565b600033905090565b816004600083815260200190815260200160002060006101000a81548173ffffffffffffffffffffffffffffffffffffffff021916908373ffffffffffffffffffffffffffffffffffffffff160217905550808273ffffffffffffffffffffffffffffffffffffffff16611ab183611010565b73ffffffffffffffffffffffffffffffffffffffff167f8c5be1e5ebec7d5bd14f71427d1e84f3dd0314c0f7b2291e5b200ac8c7c3b92560405160405180910390a45050565b600081600001549050919050565b600080611b1183611010565b90508073ffffffffffffffffffffffffffffffffffffffff168473ffffffffffffffffffffffffffffffffffffffff161480611b535750611b528185611875565b5b80611b9157508373ffffffffffffffffffffffffffffffffffffffff16611b79846105e3565b73ffffffffffffffffffffffffffffffffffffffff16145b91505092915050565b8273ffffffffffffffffffffffffffffffffffffffff16611bba82611010565b73ffffffffffffffffffffffffffffffffffffffff1614611c10576040517f08c379a0000000000000000000000000000000000000000000000000000000008152600401611c0790613bcb565b60405180910390fd5b600073ffffffffffffffffffffffffffffffffffffffff168273ffffffffffffffffffffffffffffffffffffffff161415611c80576040517f08c379a0000000000000000000000000000000000000000000000000000000008152600401611c7790613c5d565b60405180910390fd5b611c8d8383836001612702565b8273ffffffffffffffffffffffffffffffffffffffff16611cad82611010565b73ffffffffffffffffffffffffffffffffffffffff1614611d03576040517f08c379a0000000000000000000000000000000000000000000000000000000008152600401611cfa90613bcb565b60405180910390fd5b6004600082815260200190815260200160002060006101000a81549073ffffffffffffffffffffffffffffffffffffffff02191690556001600360008573ffffffffffffffffffffffffffffffffffffffff1673ffffffffffffffffffffffffffffffffffffffff168152602001908152602001600020600082825403925050819055506001600360008473ffffffffffffffffffffffffffffffffffffffff1673ffffffffffffffffffffffffffffffffffffffff16815260200190815260200160002060008282540192505081905550816002600083815260200190815260200160002060006101000a81548173ffffffffffffffffffffffffffffffffffffffff021916908373ffffffffffffffffffffffffffffffffffffffff160217905550808273ffffffffffffffffffffffffffffffffffffffff168473ffffffffffffffffffffffffffffffffffffffff167fddf252ad1be2c89b69c2b068fc378daa952ba7f163c4a11628f55a4df523b3ef60405160405180910390a4611e8f8383836001612708565b505050565b60006002600083815260200190815260200160002060009054906101000a900473ffffffffffffffffffffffffffffffffffffffff169050919050565b6001816000016000828254019250508190555050565b600073ffffffffffffffffffffffffffffffffffffffff168273ffffffffffffffffffffffffffffffffffffffff161415611f57576040517f08c379a0000000000000000000000000000000000000000000000000000000008152600401611f4e90613cc9565b60405180910390fd5b611f60816126c1565b15611fa0576040517f08c379a0000000000000000000000000000000000000000000000000000000008152600401611f9790613d35565b60405180910390fd5b611fae600083836001612702565b611fb7816126c1565b15611ff7576040517f08c379a0000000000000000000000000000000000000000000000000000000008152600401611fee90613d35565b60405180910390fd5b6001600360008473ffffffffffffffffffffffffffffffffffffffff1673ffffffffffffffffffffffffffffffffffffffff16815260200190815260200160002060008282540192505081905550816002600083815260200190815260200160002060006101000a81548173ffffffffffffffffffffffffffffffffffffffff021916908373ffffffffffffffffffffffffffffffffffffffff160217905550808273ffffffffffffffffffffffffffffffffffffffff16600073ffffffffffffffffffffffffffffffffffffffff167fddf252ad1be2c89b69c2b068fc378daa952ba7f163c4a11628f55a4df523b3ef60405160405180910390a4612101600083836001612708565b5050565b61210e826126c1565b61214d576040517f08c379a000000000000000000000000000000000000000000000000000000000815260040161214490613dc7565b60405180910390fd5b80600660008481526020019081526020016000209080519060200190612174929190612b50565b507ff8e1a15aba9398e019f0b49df1a4fde98ee17ae345cb5f6b5e2c27f5033e8ce7826040516121a4919061302f565b60405180910390a15050565b600081116121f3576040517f08c379a00000000000000000000000000000000000000000000000000000000081526004016121ea90613e33565b60405180910390fd5b6009543414612237576040517f08c379a000000000000000000000000000000000000000000000000000000000815260040161222e906139b5565b60405180910390fd5b6040518060a001604052808381526020013373ffffffffffffffffffffffffffffffffffffffff1681526020013073ffffffffffffffffffffffffffffffffffffffff16815260200182815260200160001515815250600b60008481526020019081526020016000206000820151816000015560208201518160010160006101000a81548173ffffffffffffffffffffffffffffffffffffffff021916908373ffffffffffffffffffffffffffffffffffffffff16021790555060408201518160020160006101000a81548173ffffffffffffffffffffffffffffffffffffffff021916908373ffffffffffffffffffffffffffffffffffffffff1602179055506060820151816003015560808201518160040160006101000a81548160ff021916908315150217905550905050612370333084611b9a565b817fb640004f1d14576d0c209e240cad0410e0d8c0c33a09375861fbadae2588a98d33308460006040516123a79493929190613e53565b60405180910390a25050565b600081600001549050600081116123ff576040517f08c379a00000000000000000000000000000000000000000000000000000000081526004016123f690613ee4565b60405180910390fd5b6001810382600001819055505050565b8173ffffffffffffffffffffffffffffffffffffffff168373ffffffffffffffffffffffffffffffffffffffff16141561247e576040517f08c379a000000000000000000000000000000000000000000000000000000000815260040161247590613f50565b60405180910390fd5b80600560008573ffffffffffffffffffffffffffffffffffffffff1673ffffffffffffffffffffffffffffffffffffffff16815260200190815260200160002060008473ffffffffffffffffffffffffffffffffffffffff1673ffffffffffffffffffffffffffffffffffffffff16815260200190815260200160002060006101000a81548160ff0219169083151502179055508173ffffffffffffffffffffffffffffffffffffffff168373ffffffffffffffffffffffffffffffffffffffff167f17307eab39ab6107e8899845ad3d59bd9653f200f220920489ca2b5937696c318360405161256f9190612ca7565b60405180910390a3505050565b612587848484611b9a565b6125938484848461270e565b6125d2576040517f08c379a00000000000000000000000000000000000000000000000000000000081526004016125c990613fe2565b60405180910390fd5b50505050565b606060405180602001604052806000815250905090565b60606125fa826119eb565b60006126046125d8565b90506000815111612624576040518060200160405280600081525061264f565b8061262e846128a5565b60405160200161263f929190613b35565b6040516020818303038152906040525b915050919050565b60007f01ffc9a7000000000000000000000000000000000000000000000000000000007bffffffffffffffffffffffffffffffffffffffffffffffffffffffff1916827bffffffffffffffffffffffffffffffffffffffffffffffffffffffff1916149050919050565b60008073ffffffffffffffffffffffffffffffffffffffff166126e383611e94565b73ffffffffffffffffffffffffffffffffffffffff1614159050919050565b50505050565b50505050565b600061272f8473ffffffffffffffffffffffffffffffffffffffff1661297d565b15612898578373ffffffffffffffffffffffffffffffffffffffff1663150b7a02612758611a36565b8786866040518563ffffffff1660e01b815260040161277a9493929190614057565b602060405180830381600087803b15801561279457600080fd5b505af19250505080156127c557506040513d601f19601f820116820180604052508101906127c291906140b8565b60015b612848573d80600081146127f5576040519150601f19603f3d011682016040523d82523d6000602084013e6127fa565b606091505b50600081511415612840576040517f08c379a000000000000000000000000000000000000000000000000000000000815260040161283790613fe2565b60405180910390fd5b805181602001fd5b63150b7a0260e01b7bffffffffffffffffffffffffffffffffffffffffffffffffffffffff1916817bffffffffffffffffffffffffffffffffffffffffffffffffffffffff19161491505061289d565b600190505b949350505050565b6060600060016128b4846129a0565b01905060008167ffffffffffffffff8111156128d3576128d26130d4565b5b6040519080825280601f01601f1916602001820160405280156129055781602001600182028036833780820191505090505b509050600082602001820190505b600115612972578080600190039150507f3031323334353637383961626364656600000000000000000000000000000000600a86061a8153600a858161295c5761295b6140e5565b5b049450600085141561296d57612972565b612913565b819350505050919050565b6000808273ffffffffffffffffffffffffffffffffffffffff163b119050919050565b600080600090507a184f03e93ff9f4daa797ed6e38ed64bf6a1f01000000000000000083106129fe577a184f03e93ff9f4daa797ed6e38ed64bf6a1f01000000000000000083816129f4576129f36140e5565b5b0492506040810190505b6d04ee2d6d415b85acef81000000008310612a3b576d04ee2d6d415b85acef81000000008381612a3157612a306140e5565b5b0492506020810190505b662386f26fc100008310612a6a57662386f26fc100008381612a6057612a5f6140e5565b5b0492506010810190505b6305f5e1008310612a93576305f5e1008381612a8957612a886140e5565b5b0492506008810190505b6127108310612ab8576127108381612aae57612aad6140e5565b5b0492506004810190505b60648310612adb5760648381612ad157612ad06140e5565b5b0492506002810190505b600a8310612aea576001810190505b80915050919050565b6040518060a0016040528060008152602001600073ffffffffffffffffffffffffffffffffffffffff168152602001600073ffffffffffffffffffffffffffffffffffffffff168152602001600081526020016000151581525090565b828054612b5c9061349a565b90600052602060002090601f016020900481019282612b7e5760008555612bc5565b82601f10612b9757805160ff1916838001178555612bc5565b82800160010185558215612bc5579182015b82811115612bc4578251825591602001919060010190612ba9565b5b509050612bd29190612bd6565b5090565b5b80821115612bef576000816000905550600101612bd7565b5090565b6000604051905090565b600080fd5b600080fd5b60007fffffffff0000000000000000000000000000000000000000000000000000000082169050919050565b612c3c81612c07565b8114612c4757600080fd5b50565b600081359050612c5981612c33565b92915050565b600060208284031215612c7557612c74612bfd565b5b6000612c8384828501612c4a565b91505092915050565b60008115159050919050565b612ca181612c8c565b82525050565b6000602082019050612cbc6000830184612c98565b92915050565b600081519050919050565b600082825260208201905092915050565b60005b83811015612cfc578082015181840152602081019050612ce1565b83811115612d0b576000848401525b50505050565b6000601f19601f8301169050919050565b6000612d2d82612cc2565b612d378185612ccd565b9350612d47818560208601612cde565b612d5081612d11565b840191505092915050565b60006020820190508181036000830152612d758184612d22565b905092915050565b6000819050919050565b612d9081612d7d565b8114612d9b57600080fd5b50565b600081359050612dad81612d87565b92915050565b600060208284031215612dc957612dc8612bfd565b5b6000612dd784828501612d9e565b91505092915050565b600073ffffffffffffffffffffffffffffffffffffffff82169050919050565b6000612e0b82612de0565b9050919050565b612e1b81612e00565b82525050565b6000602082019050612e366000830184612e12565b92915050565b612e4581612e00565b8114612e5057600080fd5b50565b600081359050612e6281612e3c565b92915050565b60008060408385031215612e7f57612e7e612bfd565b5b6000612e8d85828601612e53565b9250506020612e9e85828601612d9e565b9150509250929050565b600081519050919050565b600082825260208201905092915050565b6000819050602082019050919050565b612edd81612d7d565b82525050565b6000612eee82612de0565b9050919050565b612efe81612ee3565b82525050565b612f0d81612c8c565b82525050565b60a082016000820151612f296000850182612ed4565b506020820151612f3c6020850182612ef5565b506040820151612f4f6040850182612ef5565b506060820151612f626060850182612ed4565b506080820151612f756080850182612f04565b50505050565b6000612f878383612f13565b60a08301905092915050565b6000602082019050919050565b6000612fab82612ea8565b612fb58185612eb3565b9350612fc083612ec4565b8060005b83811015612ff1578151612fd88882612f7b565b9750612fe383612f93565b925050600181019050612fc4565b5085935050505092915050565b600060208201905081810360008301526130188184612fa0565b905092915050565b61302981612d7d565b82525050565b60006020820190506130446000830184613020565b92915050565b60008060006060848603121561306357613062612bfd565b5b600061307186828701612e53565b935050602061308286828701612e53565b925050604061309386828701612d9e565b9150509250925092565b6000602082840312156130b3576130b2612bfd565b5b60006130c184828501612e53565b91505092915050565b600080fd5b600080fd5b7f4e487b7100000000000000000000000000000000000000000000000000000000600052604160045260246000fd5b61310c82612d11565b810181811067ffffffffffffffff8211171561312b5761312a6130d4565b5b80604052505050565b600061313e612bf3565b905061314a8282613103565b919050565b600067ffffffffffffffff82111561316a576131696130d4565b5b61317382612d11565b9050602081019050919050565b82818337600083830152505050565b60006131a261319d8461314f565b613134565b9050828152602081018484840111156131be576131bd6130cf565b5b6131c9848285613180565b509392505050565b600082601f8301126131e6576131e56130ca565b5b81356131f684826020860161318f565b91505092915050565b6000806040838503121561321657613215612bfd565b5b600083013567ffffffffffffffff81111561323457613233612c02565b5b613240858286016131d1565b925050602061325185828601612d9e565b9150509250929050565b6000806040838503121561327257613271612bfd565b5b600061328085828601612d9e565b925050602061329185828601612d9e565b9150509250929050565b6132a481612c8c565b81146132af57600080fd5b50565b6000813590506132c18161329b565b92915050565b600080604083850312156132de576132dd612bfd565b5b60006132ec85828601612e53565b92505060206132fd858286016132b2565b9150509250929050565b600067ffffffffffffffff821115613322576133216130d4565b5b61332b82612d11565b9050602081019050919050565b600061334b61334684613307565b613134565b905082815260208101848484011115613367576133666130cf565b5b613372848285613180565b509392505050565b600082601f83011261338f5761338e6130ca565b5b813561339f848260208601613338565b91505092915050565b600080600080608085870312156133c2576133c1612bfd565b5b60006133d087828801612e53565b94505060206133e187828801612e53565b93505060406133f287828801612d9e565b925050606085013567ffffffffffffffff81111561341357613412612c02565b5b61341f8782880161337a565b91505092959194509250565b6000806040838503121561344257613441612bfd565b5b600061345085828601612e53565b925050602061346185828601612e53565b9150509250929050565b7f4e487b7100000000000000000000000000000000000000000000000000000000600052602260045260246000fd5b600060028204905060018216806134b257607f821691505b602082108114156134c6576134c561346b565b5b50919050565b7f4552433732313a20617070726f76616c20746f2063757272656e74206f776e6560008201527f7200000000000000000000000000000000000000000000000000000000000000602082015250565b6000613528602183612ccd565b9150613533826134cc565b604082019050919050565b600060208201905081810360008301526135578161351b565b9050919050565b7f4552433732313a20617070726f76652063616c6c6572206973206e6f7420746f60008201527f6b656e206f776e6572206f7220617070726f76656420666f7220616c6c000000602082015250565b60006135ba603d83612ccd565b91506135c58261355e565b604082019050919050565b600060208201905081810360008301526135e9816135ad565b9050919050565b7f4e487b7100000000000000000000000000000000000000000000000000000000600052601160045260246000fd5b600061362a82612d7d565b915061363583612d7d565b925082821015613648576136476135f0565b5b828203905092915050565b600061365e82612d7d565b915061366983612d7d565b9250827fffffffffffffffffffffffffffffffffffffffffffffffffffffffffffffffff0382111561369e5761369d6135f0565b5b828201905092915050565b7f4e487b7100000000000000000000000000000000000000000000000000000000600052603260045260246000fd5b60006136e382612d7d565b91507fffffffffffffffffffffffffffffffffffffffffffffffffffffffffffffffff821415613716576137156135f0565b5b600182019050919050565b7f4552433732313a2063616c6c6572206973206e6f7420746f6b656e206f776e6560008201527f72206f7220617070726f76656400000000000000000000000000000000000000602082015250565b600061377d602d83612ccd565b915061378882613721565b604082019050919050565b600060208201905081810360008301526137ac81613770565b9050919050565b7f4552433732313a20696e76616c696420746f6b656e2049440000000000000000600082015250565b60006137e9601883612ccd565b91506137f4826137b3565b602082019050919050565b60006020820190508181036000830152613818816137dc565b9050919050565b7f4552433732313a2061646472657373207a65726f206973206e6f74206120766160008201527f6c6964206f776e65720000000000000000000000000000000000000000000000602082015250565b600061387b602983612ccd565b91506138868261381f565b604082019050919050565b600060208201905081810360008301526138aa8161386e565b9050919050565b7f4f6e6c79206974656d206f776e65722063616e20706572666f726d207468697360008201527f206f7065726174696f6e00000000000000000000000000000000000000000000602082015250565b600061390d602a83612ccd565b9150613918826138b1565b604082019050919050565b6000602082019050818103600083015261393c81613900565b9050919050565b7f5072696365206d75737420626520657175616c20746f206c697374696e67207060008201527f7269636500000000000000000000000000000000000000000000000000000000602082015250565b600061399f602483612ccd565b91506139aa82613943565b604082019050919050565b600060208201905081810360008301526139ce81613992565b9050919050565b7f4f6e6c79206f776e6572206f6620746865206d61726b6574706c61636520636160008201527f6e206368616e676520746865206c697374696e67207072696365000000000000602082015250565b6000613a31603a83612ccd565b9150613a3c826139d5565b604082019050919050565b60006020820190508181036000830152613a6081613a24565b9050919050565b7f506c65617365207375626d6974207468652061736b696e67207072696365206960008201527f6e206f7264657220746f20636f6d706c65746520746865207075726368617365602082015250565b6000613ac3604083612ccd565b9150613ace82613a67565b604082019050919050565b60006020820190508181036000830152613af281613ab6565b9050919050565b600081905092915050565b6000613b0f82612cc2565b613b198185613af9565b9350613b29818560208601612cde565b80840191505092915050565b6000613b418285613b04565b9150613b4d8284613b04565b91508190509392505050565b7f4552433732313a207472616e736665722066726f6d20696e636f72726563742060008201527f6f776e6572000000000000000000000000000000000000000000000000000000602082015250565b6000613bb5602583612ccd565b9150613bc082613b59565b604082019050919050565b60006020820190508181036000830152613be481613ba8565b9050919050565b7f4552433732313a207472616e7366657220746f20746865207a65726f2061646460008201527f7265737300000000000000000000000000000000000000000000000000000000602082015250565b6000613c47602483612ccd565b9150613c5282613beb565b604082019050919050565b60006020820190508181036000830152613c7681613c3a565b9050919050565b7f4552433732313a206d696e7420746f20746865207a65726f2061646472657373600082015250565b6000613cb3602083612ccd565b9150613cbe82613c7d565b602082019050919050565b60006020820190508181036000830152613ce281613ca6565b9050919050565b7f4552433732313a20746f6b656e20616c7265616479206d696e74656400000000600082015250565b6000613d1f601c83612ccd565b9150613d2a82613ce9565b602082019050919050565b60006020820190508181036000830152613d4e81613d12565b9050919050565b7f45524337323155524953746f726167653a2055524920736574206f66206e6f6e60008201527f6578697374656e7420746f6b656e000000000000000000000000000000000000602082015250565b6000613db1602e83612ccd565b9150613dbc82613d55565b604082019050919050565b60006020820190508181036000830152613de081613da4565b9050919050565b7f5072696365206d757374206265206174206c6561737420310000000000000000600082015250565b6000613e1d601883612ccd565b9150613e2882613de7565b602082019050919050565b60006020820190508181036000830152613e4c81613e10565b9050919050565b6000608082019050613e686000830187612e12565b613e756020830186612e12565b613e826040830185613020565b613e8f6060830184612c98565b95945050505050565b7f436f756e7465723a2064656372656d656e74206f766572666c6f770000000000600082015250565b6000613ece601b83612ccd565b9150613ed982613e98565b602082019050919050565b60006020820190508181036000830152613efd81613ec1565b9050919050565b7f4552433732313a20617070726f766520746f2063616c6c657200000000000000600082015250565b6000613f3a601983612ccd565b9150613f4582613f04565b602082019050919050565b60006020820190508181036000830152613f6981613f2d565b9050919050565b7f4552433732313a207472616e7366657220746f206e6f6e20455243373231526560008201527f63656976657220696d706c656d656e7465720000000000000000000000000000602082015250565b6000613fcc603283612ccd565b9150613fd782613f70565b604082019050919050565b60006020820190508181036000830152613ffb81613fbf565b9050919050565b600081519050919050565b600082825260208201905092915050565b600061402982614002565b614033818561400d565b9350614043818560208601612cde565b61404c81612d11565b840191505092915050565b600060808201905061406c6000830187612e12565b6140796020830186612e12565b6140866040830185613020565b8181036060830152614098818461401e565b905095945050505050565b6000815190506140b281612c33565b92915050565b6000602082840312156140ce576140cd612bfd565b5b60006140dc848285016140a3565b91505092915050565b7f4e487b7100000000000000000000000000000000000000000000000000000000600052601260045260246000fdfea2646970667358221220486be8d0db160b334b8c5898b4449ce2f6e20b6d3b5b20e1ae243c67c6627fe164736f6c63430008090033",
  "linkReferences": {},
  "deployedLinkReferences": {}
}